{
  "contractName": "Customer",
  "abi": [
    {
      "inputs": [
        {
          "name": "BotManagementContractAddress",
          "type": "address"
        },
        {
          "name": "vehicleContractAddress",
          "type": "address"
        }
      ],
      "payable": false,
      "stateMutability": "nonpayable",
      "type": "constructor"
    },
    {
      "constant": true,
      "inputs": [
        {
          "name": "timestamp",
          "type": "uint256"
        }
      ],
      "name": "getDate",
      "outputs": [
        {
          "name": "",
          "type": "uint256"
        },
        {
          "name": "",
          "type": "uint256"
        },
        {
          "name": "",
          "type": "uint256"
        },
        {
          "name": "",
          "type": "uint256"
        },
        {
          "name": "",
          "type": "uint256"
        },
        {
          "name": "",
          "type": "uint256"
        }
      ],
      "payable": false,
      "stateMutability": "view",
      "type": "function"
    },
    {
      "constant": true,
      "inputs": [],
      "name": "getVehicleLenght",
      "outputs": [
        {
          "name": "",
          "type": "uint256"
        }
      ],
      "payable": false,
      "stateMutability": "view",
      "type": "function"
    },
    {
      "constant": true,
      "inputs": [
        {
          "name": "index",
          "type": "uint256"
        }
      ],
      "name": "getListVehicle",
      "outputs": [
        {
          "name": "",
          "type": "string"
        },
        {
          "name": "",
          "type": "uint256"
        },
        {
          "name": "",
          "type": "bool"
        }
      ],
      "payable": false,
      "stateMutability": "view",
      "type": "function"
    },
    {
      "constant": true,
      "inputs": [],
      "name": "getBalance",
      "outputs": [
        {
          "name": "",
          "type": "int256"
        }
      ],
      "payable": false,
      "stateMutability": "view",
      "type": "function"
    },
    {
      "constant": true,
      "inputs": [],
      "name": "checkAccount",
      "outputs": [
        {
          "name": "",
          "type": "bool"
        }
      ],
      "payable": false,
      "stateMutability": "view",
      "type": "function"
    },
    {
      "constant": false,
      "inputs": [],
      "name": "addCoin",
      "outputs": [
        {
          "name": "",
          "type": "bool"
        }
      ],
      "payable": true,
      "stateMutability": "payable",
      "type": "function"
    },
    {
      "constant": true,
      "inputs": [
        {
          "name": "plate_id",
          "type": "string"
        }
      ],
      "name": "getFixedInfo",
      "outputs": [
        {
          "name": "",
          "type": "string"
        },
        {
          "name": "",
          "type": "string"
        },
        {
          "name": "",
          "type": "uint256"
        },
        {
          "name": "",
          "type": "string"
        },
        {
          "name": "",
          "type": "string"
        }
      ],
      "payable": false,
      "stateMutability": "view",
      "type": "function"
    },
    {
      "constant": true,
      "inputs": [
        {
          "name": "plate_id",
          "type": "string"
        }
      ],
      "name": "getDynamicInfo",
      "outputs": [
        {
          "name": "",
          "type": "address"
        },
        {
          "name": "",
          "type": "uint256"
        },
        {
          "name": "",
          "type": "string"
        },
        {
          "name": "",
          "type": "string"
        },
        {
          "name": "",
          "type": "int256"
        }
      ],
      "payable": false,
      "stateMutability": "view",
      "type": "function"
    },
    {
      "constant": true,
      "inputs": [
        {
          "name": "_plate_id",
          "type": "string"
        }
      ],
      "name": "getLogsLength",
      "outputs": [
        {
          "name": "",
          "type": "uint256"
        }
      ],
      "payable": false,
      "stateMutability": "view",
      "type": "function"
    },
    {
      "constant": true,
      "inputs": [
        {
          "name": "_plate_id",
          "type": "string"
        },
        {
          "name": "_index",
          "type": "uint256"
        }
      ],
      "name": "getLogs",
      "outputs": [
        {
          "name": "",
          "type": "string"
        },
        {
          "name": "",
          "type": "address"
        },
        {
          "name": "",
          "type": "uint256"
        }
      ],
      "payable": false,
      "stateMutability": "view",
      "type": "function"
    }
  ],
  "bytecode": "0x608060405234801561001057600080fd5b50604051604080611b4d8339810180604052810190808051906020019092919080519060200190929190505050816000806101000a81548173ffffffffffffffffffffffffffffffffffffffff021916908373ffffffffffffffffffffffffffffffffffffffff16021790555080600260006101000a81548173ffffffffffffffffffffffffffffffffffffffff021916908373ffffffffffffffffffffffffffffffffffffffff16021790555073e8660491d945560fecb719bdb96479bed17c577c600160006101000a81548173ffffffffffffffffffffffffffffffffffffffff021916908373ffffffffffffffffffffffffffffffffffffffff1602179055505050611a29806101246000396000f3006080604052600436106100a4576000357c0100000000000000000000000000000000000000000000000000000000900463ffffffff16806312065fe0146100a95780632b57298b146100d45780632d601985146101385780632fd60dc61461015a57806330b3183c146101855780633d2cffdd146102025780635c13a4391461032857806398d68d9e14610357578063a5c779a8146104e6578063e11196e01461059e575b600080fd5b3480156100b557600080fd5b506100be6107cb565b6040518082815260200191505060405180910390f35b3480156100e057600080fd5b506100ff600480360381019080803590602001909291905050506108c9565b60405180878152602001868152602001858152602001848152602001838152602001828152602001965050505050505060405180910390f35b610140610de8565b604051808215151515815260200191505060405180910390f35b34801561016657600080fd5b5061016f610ee6565b6040518082815260200191505060405180910390f35b34801561019157600080fd5b506101ec600480360381019080803590602001908201803590602001908080601f0160208091040260200160405190810160405280939291908181526020018383808284378201915050505050509192919290505050610fe5565b6040518082815260200191505060405180910390f35b34801561020e57600080fd5b50610273600480360381019080803590602001908201803590602001908080601f01602080910402602001604051908101604052809392919081815260200183838082843782019150505050505091929192908035906020019092919050505061111e565b60405180806020018473ffffffffffffffffffffffffffffffffffffffff1673ffffffffffffffffffffffffffffffffffffffff168152602001838152602001828103825285818151815260200191508051906020019080838360005b838110156102eb5780820151818401526020810190506102d0565b50505050905090810190601f1680156103185780820380516001836020036101000a031916815260200191505b5094505050505060405180910390f35b34801561033457600080fd5b5061033d6112d5565b604051808215151515815260200191505060405180910390f35b34801561036357600080fd5b506103be600480360381019080803590602001908201803590602001908080601f01602080910402602001604051908101604052809392919081815260200183838082843782019150505050505091929192905050506113d3565b604051808673ffffffffffffffffffffffffffffffffffffffff1673ffffffffffffffffffffffffffffffffffffffff1681526020018581526020018060200180602001848152602001838103835286818151815260200191508051906020019080838360005b83811015610440578082015181840152602081019050610425565b50505050905090810190601f16801561046d5780820380516001836020036101000a031916815260200191505b50838103825285818151815260200191508051906020019080838360005b838110156104a657808201518184015260208101905061048b565b50505050905090810190601f1680156104d35780820380516001836020036101000a031916815260200191505b5097505050505050505060405180910390f35b3480156104f257600080fd5b50610511600480360381019080803590602001909291905050506115e5565b604051808060200184815260200183151515158152602001828103825285818151815260200191508051906020019080838360005b83811015610561578082015181840152602081019050610546565b50505050905090810190601f16801561058e5780820380516001836020036101000a031916815260200191505b5094505050505060405180910390f35b3480156105aa57600080fd5b50610605600480360381019080803590602001908201803590602001908080601f0160208091040260200160405190810160405280939291908181526020018383808284378201915050505050509192919290505050611764565b604051808060200180602001868152602001806020018060200185810385528a818151815260200191508051906020019080838360005b8381101561065757808201518184015260208101905061063c565b50505050905090810190601f1680156106845780820380516001836020036101000a031916815260200191505b50858103845289818151815260200191508051906020019080838360005b838110156106bd5780820151818401526020810190506106a2565b50505050905090810190601f1680156106ea5780820380516001836020036101000a031916815260200191505b50858103835287818151815260200191508051906020019080838360005b83811015610723578082015181840152602081019050610708565b50505050905090810190601f1680156107505780820380516001836020036101000a031916815260200191505b50858103825286818151815260200191508051906020019080838360005b8381101561078957808201518184015260208101905061076e565b50505050905090810190601f1680156107b65780820380516001836020036101000a031916815260200191505b50995050505050505050505060405180910390f35b60008060009054906101000a900473ffffffffffffffffffffffffffffffffffffffff1673ffffffffffffffffffffffffffffffffffffffff1663f8b2cb4f336040518263ffffffff167c0100000000000000000000000000000000000000000000000000000000028152600401808273ffffffffffffffffffffffffffffffffffffffff1673ffffffffffffffffffffffffffffffffffffffff168152602001915050602060405180830381600087803b15801561088957600080fd5b505af115801561089d573d6000803e3d6000fd5b505050506040513d60208110156108b357600080fd5b8101908080519060200190929190505050905090565b600080600080600080600080600080600080600160009054906101000a900473ffffffffffffffffffffffffffffffffffffffff1673ffffffffffffffffffffffffffffffffffffffff166392d663138e6040518263ffffffff167c010000000000000000000000000000000000000000000000000000000002815260040180828152602001915050602060405180830381600087803b15801561096c57600080fd5b505af1158015610980573d6000803e3d6000fd5b505050506040513d602081101561099657600080fd5b810190808051906020019092919050505061ffff169550600160009054906101000a900473ffffffffffffffffffffffffffffffffffffffff1673ffffffffffffffffffffffffffffffffffffffff1663a324ad248e6040518263ffffffff167c010000000000000000000000000000000000000000000000000000000002815260040180828152602001915050602060405180830381600087803b158015610a3e57600080fd5b505af1158015610a52573d6000803e3d6000fd5b505050506040513d6020811015610a6857600080fd5b810190808051906020019092919050505061ffff169450600160009054906101000a900473ffffffffffffffffffffffffffffffffffffffff1673ffffffffffffffffffffffffffffffffffffffff166365c728408e6040518263ffffffff167c010000000000000000000000000000000000000000000000000000000002815260040180828152602001915050602060405180830381600087803b158015610b1057600080fd5b505af1158015610b24573d6000803e3d6000fd5b505050506040513d6020811015610b3a57600080fd5b810190808051906020019092919050505061ffff169350600160009054906101000a900473ffffffffffffffffffffffffffffffffffffffff1673ffffffffffffffffffffffffffffffffffffffff16633e239e1a8e6040518263ffffffff167c010000000000000000000000000000000000000000000000000000000002815260040180828152602001915050602060405180830381600087803b158015610be257600080fd5b505af1158015610bf6573d6000803e3d6000fd5b505050506040513d6020811015610c0c57600080fd5b810190808051906020019092919050505061ffff169250600160009054906101000a900473ffffffffffffffffffffffffffffffffffffffff1673ffffffffffffffffffffffffffffffffffffffff1663fa93f8838e6040518263ffffffff167c010000000000000000000000000000000000000000000000000000000002815260040180828152602001915050602060405180830381600087803b158015610cb457600080fd5b505af1158015610cc8573d6000803e3d6000fd5b505050506040513d6020811015610cde57600080fd5b810190808051906020019092919050505061ffff169150600160009054906101000a900473ffffffffffffffffffffffffffffffffffffffff1673ffffffffffffffffffffffffffffffffffffffff16638aa001fc8e6040518263ffffffff167c010000000000000000000000000000000000000000000000000000000002815260040180828152602001915050602060405180830381600087803b158015610d8657600080fd5b505af1158015610d9a573d6000803e3d6000fd5b505050506040513d6020811015610db057600080fd5b810190808051906020019092919050505061ffff1690508585858585859b509b509b509b509b509b5050505050505091939550919395565b60008060009054906101000a900473ffffffffffffffffffffffffffffffffffffffff1673ffffffffffffffffffffffffffffffffffffffff166316da863234336040518363ffffffff167c0100000000000000000000000000000000000000000000000000000000028152600401808273ffffffffffffffffffffffffffffffffffffffff1673ffffffffffffffffffffffffffffffffffffffff1681526020019150506020604051808303818588803b158015610ea657600080fd5b505af1158015610eba573d6000803e3d6000fd5b50505050506040513d6020811015610ed157600080fd5b81019080805190602001909291905050505090565b6000600260009054906101000a900473ffffffffffffffffffffffffffffffffffffffff1673ffffffffffffffffffffffffffffffffffffffff1663ffa8767a336040518263ffffffff167c0100000000000000000000000000000000000000000000000000000000028152600401808273ffffffffffffffffffffffffffffffffffffffff1673ffffffffffffffffffffffffffffffffffffffff168152602001915050602060405180830381600087803b158015610fa557600080fd5b505af1158015610fb9573d6000803e3d6000fd5b505050506040513d6020811015610fcf57600080fd5b8101908080519060200190929190505050905090565b60008060009054906101000a900473ffffffffffffffffffffffffffffffffffffffff1673ffffffffffffffffffffffffffffffffffffffff166330b3183c836040518263ffffffff167c01000000000000000000000000000000000000000000000000000000000281526004018080602001828103825283818151815260200191508051906020019080838360005b83811015611090578082015181840152602081019050611075565b50505050905090810190601f1680156110bd5780820380516001836020036101000a031916815260200191505b5092505050602060405180830381600087803b1580156110dc57600080fd5b505af11580156110f0573d6000803e3d6000fd5b505050506040513d602081101561110657600080fd5b81019080805190602001909291905050509050919050565b60606000806000809054906101000a900473ffffffffffffffffffffffffffffffffffffffff1673ffffffffffffffffffffffffffffffffffffffff16633d2cffdd86866040518363ffffffff167c01000000000000000000000000000000000000000000000000000000000281526004018080602001838152602001828103825284818151815260200191508051906020019080838360005b838110156111d35780820151818401526020810190506111b8565b50505050905090810190601f1680156112005780820380516001836020036101000a031916815260200191505b509350505050600060405180830381600087803b15801561122057600080fd5b505af1158015611234573d6000803e3d6000fd5b505050506040513d6000823e3d601f19601f82011682018060405250606081101561125e57600080fd5b81019080805164010000000081111561127657600080fd5b8281019050602081018481111561128c57600080fd5b81518560018202830111640100000000821117156112a957600080fd5b505092919060200180519060200190929190805190602001909291905050509250925092509250925092565b60008060009054906101000a900473ffffffffffffffffffffffffffffffffffffffff1673ffffffffffffffffffffffffffffffffffffffff166369921c26336040518263ffffffff167c0100000000000000000000000000000000000000000000000000000000028152600401808273ffffffffffffffffffffffffffffffffffffffff1673ffffffffffffffffffffffffffffffffffffffff168152602001915050602060405180830381600087803b15801561139357600080fd5b505af11580156113a7573d6000803e3d6000fd5b505050506040513d60208110156113bd57600080fd5b8101908080519060200190929190505050905090565b6000806060806000600260009054906101000a900473ffffffffffffffffffffffffffffffffffffffff1673ffffffffffffffffffffffffffffffffffffffff166398d68d9e876040518263ffffffff167c01000000000000000000000000000000000000000000000000000000000281526004018080602001828103825283818151815260200191508051906020019080838360005b8381101561148557808201518184015260208101905061146a565b50505050905090810190601f1680156114b25780820380516001836020036101000a031916815260200191505b5092505050600060405180830381600087803b1580156114d157600080fd5b505af11580156114e5573d6000803e3d6000fd5b505050506040513d6000823e3d601f19601f8201168201806040525060a081101561150f57600080fd5b810190808051906020019092919080519060200190929190805164010000000081111561153b57600080fd5b8281019050602081018481111561155157600080fd5b815185600182028301116401000000008211171561156e57600080fd5b5050929190602001805164010000000081111561158a57600080fd5b828101905060208101848111156115a057600080fd5b81518560018202830111640100000000821117156115bd57600080fd5b5050929190602001805190602001909291905050509450945094509450945091939590929450565b6060600080600260009054906101000a900473ffffffffffffffffffffffffffffffffffffffff1673ffffffffffffffffffffffffffffffffffffffff166373c9c5de33866040518363ffffffff167c0100000000000000000000000000000000000000000000000000000000028152600401808373ffffffffffffffffffffffffffffffffffffffff1673ffffffffffffffffffffffffffffffffffffffff16815260200182815260200192505050600060405180830381600087803b1580156116af57600080fd5b505af11580156116c3573d6000803e3d6000fd5b505050506040513d6000823e3d601f19601f8201168201806040525060608110156116ed57600080fd5b81019080805164010000000081111561170557600080fd5b8281019050602081018481111561171b57600080fd5b815185600182028301116401000000008211171561173857600080fd5b505092919060200180519060200190929190805190602001909291905050509250925092509193909250565b6060806000606080600260009054906101000a900473ffffffffffffffffffffffffffffffffffffffff1673ffffffffffffffffffffffffffffffffffffffff1663e11196e0876040518263ffffffff167c01000000000000000000000000000000000000000000000000000000000281526004018080602001828103825283818151815260200191508051906020019080838360005b838110156118165780820151818401526020810190506117fb565b50505050905090810190601f1680156118435780820380516001836020036101000a031916815260200191505b5092505050600060405180830381600087803b15801561186257600080fd5b505af1158015611876573d6000803e3d6000fd5b505050506040513d6000823e3d601f19601f8201168201806040525060a08110156118a057600080fd5b8101908080516401000000008111156118b857600080fd5b828101905060208101848111156118ce57600080fd5b81518560018202830111640100000000821117156118eb57600080fd5b5050929190602001805164010000000081111561190757600080fd5b8281019050602081018481111561191d57600080fd5b815185600182028301116401000000008211171561193a57600080fd5b505092919060200180519060200190929190805164010000000081111561196057600080fd5b8281019050602081018481111561197657600080fd5b815185600182028301116401000000008211171561199357600080fd5b505092919060200180516401000000008111156119af57600080fd5b828101905060208101848111156119c557600080fd5b81518560018202830111640100000000821117156119e257600080fd5b505092919050505094509450945094509450919395909294505600a165627a7a723058200945ef7e35d0b50a6da152a5443ff522e672b253e3b6c6ba66de3984505e99410029",
  "source": "pragma solidity ^0.4.21;\n\ncontract Vehicles{\n    function getOwnerVehicle(address, uint256) public view returns(string, uint256, bool){}\n    function getOwnerVehicleLenght(address) public constant returns(uint) {}\n    function getOwnerInfo(string, uint256 ) public view returns (address, uint256){}\n    function getFixedInfo(string ) view public returns (string, string, uint256, string, string) {}\n    function getDynamicInfo(string) view public returns (address, uint256, string, string, int){}\n}\n\n\ncontract DateTime{\n    function getYear(uint256) constant returns (uint16) {}\n    function getMonth(uint256) constant returns (uint16) {}\n    function getDay(uint256) constant returns (uint16) {}\n    function getHour(uint256) constant returns (uint16) {}\n    function getMinute(uint256) constant returns (uint16) {}\n    function getSecond(uint256) constant returns (uint16) {}\n}\n\ncontract BotManagement{\n    \n    function checkAccount(address) public view returns(bool){}\n    \n    function addCoin(address) public payable returns (bool){ }\n    \n    function getBalance(address) public view returns(int256){}\n    \n    function getLogs(string , uint256 ) public view returns(string, address, uint256){ }\n    \n    function getLogsLength(string ) public view returns(uint256){ }\n    \n}\n\ncontract Customer{\n    \n    BotManagement botMgmtContract;\n    DateTime dateTimeContract;\n    \n    Vehicles vehicleContract;\n    constructor(address BotManagementContractAddress, address vehicleContractAddress) public{\n        botMgmtContract = BotManagement(BotManagementContractAddress);\n        vehicleContract = Vehicles(vehicleContractAddress);\n        dateTimeContract = DateTime(address(0xe8660491d945560fecb719bdb96479bed17c577c));\n    }\n    \n    function getDate(uint256 timestamp) public view returns(uint256, uint256, uint256, uint256, uint256, uint256){\n        uint256 _year = dateTimeContract.getYear(timestamp);\n        uint256 _month = dateTimeContract.getMonth(timestamp);\n        uint256 _day = dateTimeContract.getDay(timestamp);\n        uint256 _hour = dateTimeContract.getHour(timestamp);\n        uint256 _minute = dateTimeContract.getMinute(timestamp);\n        uint256 _second = dateTimeContract.getSecond(timestamp);\n        return (_year, _month, _day, _hour, _minute, _second);\n    }\n    \n    function getVehicleLenght() public view returns (uint256){\n        return vehicleContract.getOwnerVehicleLenght(msg.sender);\n    }\n    \n    function getListVehicle(uint256 index) public view returns(string, uint256, bool){\n        return vehicleContract.getOwnerVehicle(msg.sender, index);\n    } \n   \n    function getBalance() public view returns(int256){\n        return botMgmtContract.getBalance(msg.sender);\n    }\n    \n    function checkAccount() public view returns (bool){\n        return botMgmtContract.checkAccount(msg.sender);\n    }\n    function addCoin() public payable returns(bool){\n         botMgmtContract.addCoin.value(msg.value)(msg.sender);\n    }\n    \n    function getFixedInfo(string plate_id ) view public returns (string, string, uint256, string, string) {\n        return vehicleContract.getFixedInfo(plate_id);\n    }\n    \n     function getDynamicInfo(string plate_id) view public returns (address, uint256, string, string, int){\n         return vehicleContract.getDynamicInfo(plate_id);\n     }\n    \n    function getLogsLength(string _plate_id) public view returns (uint256){\n        return botMgmtContract.getLogsLength(_plate_id);\n    }\n    \n    function getLogs(string _plate_id, uint256 _index) public view returns(string, address, uint256){\n        return botMgmtContract.getLogs(_plate_id, _index);\n    }\n}",
  "sourcePath": "/Users/ps/Desktop/Hackathon/Train/Customer/contracts/Customer.sol",
  "compiler": {
    "name": "solc",
    "version": "0.4.24+commit.e67f0147.Emscripten.clang"
  },
  "schemaVersion": "2.0.1",
  "updatedAt": "2018-08-28T02:37:11.228Z"
}