{
  "contractName": "Vehicles",
  "abi": [
    {
      "constant": true,
      "inputs": [
        {
          "name": "",
          "type": "address"
        },
        {
          "name": "",
          "type": "uint256"
        }
      ],
      "name": "getOwnerVehicle",
      "outputs": [
        {
          "name": "",
          "type": "string"
        },
        {
          "name": "",
          "type": "uint256"
        },
        {
          "name": "",
          "type": "bool"
        }
      ],
      "payable": false,
      "stateMutability": "view",
      "type": "function"
    },
    {
      "constant": true,
      "inputs": [
        {
          "name": "",
          "type": "address"
        }
      ],
      "name": "getOwnerVehicleLenght",
      "outputs": [
        {
          "name": "",
          "type": "uint256"
        }
      ],
      "payable": false,
      "stateMutability": "view",
      "type": "function"
    },
    {
      "constant": true,
      "inputs": [
        {
          "name": "",
          "type": "string"
        },
        {
          "name": "",
          "type": "uint256"
        }
      ],
      "name": "getOwnerInfo",
      "outputs": [
        {
          "name": "",
          "type": "address"
        },
        {
          "name": "",
          "type": "uint256"
        }
      ],
      "payable": false,
      "stateMutability": "view",
      "type": "function"
    },
    {
      "constant": true,
      "inputs": [
        {
          "name": "",
          "type": "string"
        }
      ],
      "name": "getFixedInfo",
      "outputs": [
        {
          "name": "",
          "type": "string"
        },
        {
          "name": "",
          "type": "string"
        },
        {
          "name": "",
          "type": "uint256"
        },
        {
          "name": "",
          "type": "string"
        },
        {
          "name": "",
          "type": "string"
        }
      ],
      "payable": false,
      "stateMutability": "view",
      "type": "function"
    },
    {
      "constant": true,
      "inputs": [
        {
          "name": "",
          "type": "string"
        }
      ],
      "name": "getDynamicInfo",
      "outputs": [
        {
          "name": "",
          "type": "address"
        },
        {
          "name": "",
          "type": "uint256"
        },
        {
          "name": "",
          "type": "string"
        },
        {
          "name": "",
          "type": "string"
        },
        {
          "name": "",
          "type": "int256"
        }
      ],
      "payable": false,
      "stateMutability": "view",
      "type": "function"
    }
  ],
  "bytecode": "0x608060405234801561001057600080fd5b50610682806100206000396000f30060806040526004361061006d576000357c0100000000000000000000000000000000000000000000000000000000900463ffffffff1680634fdb5afc1461007257806373c9c5de1461012c57806398d68d9e14610204578063e11196e014610393578063ffa8767a146105c0575b600080fd5b34801561007e57600080fd5b506100e3600480360381019080803590602001908201803590602001908080601f016020809104026020016040519081016040528093929190818152602001838380828437820191505050505050919291929080359060200190929190505050610617565b604051808373ffffffffffffffffffffffffffffffffffffffff1673ffffffffffffffffffffffffffffffffffffffff1681526020018281526020019250505060405180910390f35b34801561013857600080fd5b50610177600480360381019080803573ffffffffffffffffffffffffffffffffffffffff16906020019092919080359060200190929190505050610621565b604051808060200184815260200183151515158152602001828103825285818151815260200191508051906020019080838360005b838110156101c75780820151818401526020810190506101ac565b50505050905090810190601f1680156101f45780820380516001836020036101000a031916815260200191505b5094505050505060405180910390f35b34801561021057600080fd5b5061026b600480360381019080803590602001908201803590602001908080601f016020809104026020016040519081016040528093929190818152602001838380828437820191505050505050919291929050505061062d565b604051808673ffffffffffffffffffffffffffffffffffffffff1673ffffffffffffffffffffffffffffffffffffffff1681526020018581526020018060200180602001848152602001838103835286818151815260200191508051906020019080838360005b838110156102ed5780820151818401526020810190506102d2565b50505050905090810190601f16801561031a5780820380516001836020036101000a031916815260200191505b50838103825285818151815260200191508051906020019080838360005b83811015610353578082015181840152602081019050610338565b50505050905090810190601f1680156103805780820380516001836020036101000a031916815260200191505b5097505050505050505060405180910390f35b34801561039f57600080fd5b506103fa600480360381019080803590602001908201803590602001908080601f016020809104026020016040519081016040528093929190818152602001838380828437820191505050505050919291929050505061063e565b604051808060200180602001868152602001806020018060200185810385528a818151815260200191508051906020019080838360005b8381101561044c578082015181840152602081019050610431565b50505050905090810190601f1680156104795780820380516001836020036101000a031916815260200191505b50858103845289818151815260200191508051906020019080838360005b838110156104b2578082015181840152602081019050610497565b50505050905090810190601f1680156104df5780820380516001836020036101000a031916815260200191505b50858103835287818151815260200191508051906020019080838360005b838110156105185780820151818401526020810190506104fd565b50505050905090810190601f1680156105455780820380516001836020036101000a031916815260200191505b50858103825286818151815260200191508051906020019080838360005b8381101561057e578082015181840152602081019050610563565b50505050905090810190601f1680156105ab5780820380516001836020036101000a031916815260200191505b50995050505050505050505060405180910390f35b3480156105cc57600080fd5b50610601600480360381019080803573ffffffffffffffffffffffffffffffffffffffff16906020019092919050505061064f565b6040518082815260200191505060405180910390f35b6000809250929050565b60606000809250925092565b600080606080600091939590929450565b606080600060608091939590929450565b60009190505600a165627a7a72305820de37474b4c6ec2250ee901fd531a30595149411fd383f6c920c518c7bebb3f470029",
  "source": "pragma solidity ^0.4.21;\n\ncontract Vehicles{\n    function getOwnerVehicle(address, uint256) public view returns(string, uint256, bool){}\n    function getOwnerVehicleLenght(address) public constant returns(uint) {}\n    function getOwnerInfo(string, uint256 ) public view returns (address, uint256){}\n    function getFixedInfo(string ) view public returns (string, string, uint256, string, string) {}\n    function getDynamicInfo(string) view public returns (address, uint256, string, string, int){}\n}\n\n\ncontract DateTime{\n    function getYear(uint256) constant returns (uint16) {}\n    function getMonth(uint256) constant returns (uint16) {}\n    function getDay(uint256) constant returns (uint16) {}\n    function getHour(uint256) constant returns (uint16) {}\n    function getMinute(uint256) constant returns (uint16) {}\n    function getSecond(uint256) constant returns (uint16) {}\n}\n\ncontract BotManagement{\n    \n    function checkAccount(address) public view returns(bool){}\n    \n    function addCoin(address) public payable returns (bool){ }\n    \n    function getBalance(address) public view returns(int256){}\n    \n    function getLogs(string , uint256 ) public view returns(string, address, uint256){ }\n    \n    function getLogsLength(string ) public view returns(uint256){ }\n    \n}\n\ncontract Customer{\n    \n    BotManagement botMgmtContract;\n    DateTime dateTimeContract;\n    \n    Vehicles vehicleContract;\n    constructor(address BotManagementContractAddress, address vehicleContractAddress) public{\n        botMgmtContract = BotManagement(BotManagementContractAddress);\n        vehicleContract = Vehicles(vehicleContractAddress);\n        dateTimeContract = DateTime(address(0xe8660491d945560fecb719bdb96479bed17c577c));\n    }\n    \n    function getDate(uint256 timestamp) public view returns(uint256, uint256, uint256, uint256, uint256, uint256){\n        uint256 _year = dateTimeContract.getYear(timestamp);\n        uint256 _month = dateTimeContract.getMonth(timestamp);\n        uint256 _day = dateTimeContract.getDay(timestamp);\n        uint256 _hour = dateTimeContract.getHour(timestamp);\n        uint256 _minute = dateTimeContract.getMinute(timestamp);\n        uint256 _second = dateTimeContract.getSecond(timestamp);\n        return (_year, _month, _day, _hour, _minute, _second);\n    }\n    \n    function getVehicleLenght() public view returns (uint256){\n        return vehicleContract.getOwnerVehicleLenght(msg.sender);\n    }\n    \n    function getListVehicle(uint256 index) public view returns(string, uint256, bool){\n        return vehicleContract.getOwnerVehicle(msg.sender, index);\n    } \n   \n    function getBalance() public view returns(int256){\n        return botMgmtContract.getBalance(msg.sender);\n    }\n    \n    function checkAccount() public view returns (bool){\n        return botMgmtContract.checkAccount(msg.sender);\n    }\n    function addCoin() public payable returns(bool){\n         botMgmtContract.addCoin.value(msg.value)(msg.sender);\n    }\n    \n    function getFixedInfo(string plate_id ) view public returns (string, string, uint256, string, string) {\n        return vehicleContract.getFixedInfo(plate_id);\n    }\n    \n     function getDynamicInfo(string plate_id) view public returns (address, uint256, string, string, int){\n         return vehicleContract.getDynamicInfo(plate_id);\n     }\n    \n    function getLogsLength(string _plate_id) public view returns (uint256){\n        return botMgmtContract.getLogsLength(_plate_id);\n    }\n    \n    function getLogs(string _plate_id, uint256 _index) public view returns(string, address, uint256){\n        return botMgmtContract.getLogs(_plate_id, _index);\n    }\n}",
  "sourcePath": "/Users/ps/Desktop/Hackathon/Train/Customer/contracts/Customer.sol",
  "compiler": {
    "name": "solc",
    "version": "0.4.24+commit.e67f0147.Emscripten.clang"
  },
  "schemaVersion": "2.0.1",
  "updatedAt": "2018-08-27T09:33:16.599Z"
}